S0190000506F7765722D2D4F42436D2D506F7765722E7372656329
S11300000C942A000C9434000C9434000C943400A6
S11300100C9434000C9434000C9434000C9434008C
S11300200C9434000C9434000C9434000C9434007C
S11300300C9434000C9434000C9434000C9434006C
S11300400C9434000C9434000C9434000C9434005C
S11300500C94340011241FBECFE5D8E0DEBFCDBF21
S11300600E944F000C9473000C94000080E282B94B
S113007084E486BF089524EC922F96BF06B607FE4B
S1130080FDCF81B1887F8036C1F726BF06B607FE53
S1130090FDCF81B1887F803881F783B108950E94B4
S11300A061000E9436000E943B000E946F002FEF07
S11300B080E792E0215080409040E1F700C00000CA
S11300C0F2CF1BB81AB810BC599A8AB188618AB9A0
S11300D080B58E6080BD87E689B910BC08955D9BAC
S10D00E0FECF8CB90895F894FFCF09
S9030000FC
