S01800004F42436D2D2D4F42436D2D506F7765722E73726563F6
S113000045C0000058C0000056C0000054C00000A5
S113001052C0000050C000004EC000004CC00000A0
S11300204AC0000048C0000046C0000044C00000B0
S113003042C0000040C000003EC000003CC00000C0
S11300403AC0000038C0000036C0000034C00000D0
S113005032C0000030C000002EC000002CC00000E0
S11300602AC0000028C0000026C0000024C00000F0
S113007022C0000020C000001EC000001CC0000000
S11300801AC0000018C0000016C0000011241FBED2
S1130090CFEFD0E1DEBFCDBF11E0A0E0B1E0E0EEF4
S11300A0F4E000E00BBF02C007900D92A036B10748
S11300B0D9F7D6D113C2A4CF109271001092740054
S11300C08CE0809370000895E4E7F0E094EAA1E7FF
S11300D0B0E0908380818823ECF78C91887F88300E
S11300E0C1F70895CF93DF93C3E7D0E0E4E7F0E0EE
S11300F024E8A1E7B0E08883208304C09C91987F22
S11301009831C9F790819923CCF7DF91CF91089565
S1130110CF93DF93C3E7D0E0E4E7F0E024E8A1E77E
S1130120B0E08883208390819923ECF79C91987F99
S11301309832B9F7DF91CF91089584E980937400E0
S1130140E4E7F0E0808184FFFDCF0895CF93DF934F
S1130150CFE0CABB80E091E0B5D1CBBB2FEF81EEFD
S113016094E0215080409040E1F700C00000D0EFBF
S1130170DBBB2FEF81EE94E0215080409040E1F70B
S113018000C0000084E091E09DD1CBBB2FEF81EE55
S113019094E0215080409040E1F700C00000DBBBB8
S11301A02FEF81EE94E0215080409040E1F700C0B1
S11301B0000088E091E086D1CBBB2FEF81EE94E084
S11301C0215080409040E1F700C00000DBBB2FEFDE
S11301D081EE94E0215080409040E1F700C000009F
S11301E08CE091E06FD1CBBB2FEF81EE94E02150F6
S11301F080409040E1F700C00000DBBB2FEF81EEB0
S113020094E0215080409040E1F700C0000080E17C
S113021091E058D1CBBB2FEF81EE94E02150804088
S11302209040E1F700C00000DBBB2FEF81EE94E0CB
S1130230215080409040E1F700C0000084E191E04B
S113024041D1CBBB2FEF81EE94E021508040904010
S1130250E1F700C00000DBBB2FEF81EE94E02150FA
S113026080409040E1F700C0000088E191E02AD18D
S1130270CBBB2FEF81EE94E0215080409040E1F71A
S113028000C00000DBBB2FEF81EE94E021508040E2
S11302909040E1F700C000008CE191E013D1CBBBAA
S11302A02FEF81EE94E0215080409040E1F700C0B0
S11302B00000DBBB2FEF81EE94E0215080409040A2
S11302C0E1F700C000001BBA2FEF81EE94E021504B
S11302D080409040E1F700C00000DF91CF91089585
S11302E0DF9A80E291E0EED02FEF81EE94E021508E
S11302F080409040E1F700C00000DF982FEF81EECE
S113030094E0215080409040E1F700C0000008953F
S1130310DE9A88E291E0D6D02FEF81EE94E021506E
S113032080409040E1F700C00000DE982FEF81EE9E
S113033094E0215080409040E1F700C0000008950F
S1130340DD9A80E391E0BED02FEF81EE94E021505E
S113035080409040E1F700C00000DD982FEF81EE6F
S113036094E0215080409040E1F700C000000895DF
S1130370DC9A88E391E0A6D02FEF81EE94E021503F
S113038080409040E1F700C00000DC982FEF81EE40
S113039094E0215080409040E1F700C000000895AF
S11303A0DB9A80E491E08ED02FEF81EE94E021502F
S11303B080409040E1F700C00000DB982FEF81EE11
S11303C094E0215080409040E1F700C0000008957F
S11303D0DA9A88E491E076D02FEF81EE94E0215010
S11303E080409040E1F700C00000DA982FEF81EEE2
S11303F094E0215080409040E1F700C0000008954F
S1130400D99A80E591E05ED02FEF81EE94E02150FF
S113041080409040E1F700C00000D9982FEF81EEB2
S113042094E0215080409040E1F700C0000008951E
S1130430D89A88E591E046D02FEF81EE94E02150E0
S113044080409040E1F700C00000D8982FEF81EE83
S113045094E0215080409040E1F700C000000895EE
S11304601CD02ADE73DE3CDF53DF6ADF81DF98DFD6
S1130470AFDFC6DFDDDF22D0C82F26DE80E232DE2A
S11304808C2F46DE2FEF80E792E021508040904091
S1130490E1F700C0000051DEE5CF1BB81AB8E5E96A
S11304A0F0E01082599A8AB188618AB980818E609D
S11304B0808387E689B91092900008955F9BFECFF0
S11304C08CB10895FC019081992339F031965D9B9C
S11304D0FECF9CB991919111FACF0895F894FFCF72
S11304E05F615F005F625F005F635F005F645F0086
S11304F05F655F005F665F005F675F005F685F0066
S1130500206C65645F612000206C65645F6220007C
S1130510206C65645F632000206C65645F64200068
S1130520206C65645F652000206C65645F66200054
S1130530206C65645F672000206C65645F68200040
S9030000FC
