:100000000C942A000C9434000C9434000C943400AA
:100010000C9434000C9434000C9434000C94340090
:100020000C9434000C9434000C9434000C94340080
:100030000C9434000C9434000C9434000C94340070
:100040000C9434000C9434000C9434000C94340060
:100050000C94340011241FBECFE5D8E0DEBFCDBF25
:100060000E9445000C944E000C94000090BD89B98C
:1000700088E18AB98EE880BD08955D9BFECF8CB97A
:1000800008955F9BFECF8CB108958FE590E00E94AC
:1000900036000E9441000E943D00FBCFF894FFCF44
:00000001FF
